:0400000007EF00F016
:0A0008007C82FCED0BF016EF14F003
:10100000003738392F3435362A3132332D23303DED
:101010002B54656D7065726174757265203D20009A
:101020004C4D33352054656D702054657374002524
:0310300069000054
:101034001350800B1C6E13501324226E12AE25EF36
:1010440008F027EF08F028EF08F022802250D8B4E7
:101054002EEF08F030EF08F043EF08F02228D8A470
:1010640036EF08F038EF08F040EF08F0000E106E8D
:10107400000E116E000E126E000E136E128E4BEFE8
:1010840008F0000E106E000E116E000E126E000EAF
:10109400136E1750800B1C1A17501724216E16AEAE
:1010A40056EF08F058EF08F059EF08F0218021506E
:1010B400D8B45FEF08F061EF08F074EF08F021286E
:1010C400D8A467EF08F069EF08F071EF08F0000E9C
:1010D400146E000E156E000E166E000E176E168E30
:1010E4007CEF08F0000E146E000E156E000E166EE6
:1010F400000E176E2150D8B482EF08F084EF08F088
:101104008CEF08F02250D8A48AEF08F08CEF08F096
:1011140096EF08F0000E106E000E116E000E126EA7
:10112400000E136E2EEF0AF016501002F3CF27F0C4
:10113400F4CF28F027501D6E1E6A1F6A206A2850BB
:10114400236E246A256A266A15501102F3CF27F00C
:10115400F4CF28F027501D26000E1E221F22202225
:1011640028502326000E242225222622145012025F
:10117400F3CF27F0F4CF28F027501D26000E1E22AF
:101184001F22202228502326000E24222522262234
:101194001FC020F01EC01FF01DC01EF01D6A145099
:1011A4001102F3CF27F0F4CF28F027501D26285042
:1011B4001E22000E1F22000E202215501002F3CF13
:1011C40027F0F4CF28F027501D2628501E22000EA9
:1011D4001F22000E20221FC020F01EC01FF01DC0C1
:1011E4001EF01D6A14501002F3CF27F0F4CF28F03C
:1011F40027501D2628501E22000E1F22000E2022DA
:1012040016501102F3CF27F0F4CF28F027502326ED
:1012140028502422000E2522000E262215501202E8
:10122400F3CF27F0F4CF28F0275023262850242288
:10123400000E2522000E262216501202F3CF27F0AC
:10124400F4CF28F02750186E2850196E1A6A1B6ABA
:101254001AC01BF019C01AF018C019F0186A1850F7
:101264002326195024221A5025221B5026221DC041
:1012740018F01EC019F01FC01AF020C01BF0190E80
:1012840049EF09F0D8901B321A3219321832E82E7D
:1012940044EF09F018502326195024221A5025220D
:1012A4001B5026221FC020F01EC01FF01DC01EF0C0
:1012B4001D6A215022C018F0196A1826000E19223E
:1012C400820E1824276EFF0E1920286E7FEF09F076
:1012D400D890233624362536263620AE74EF09F00E
:1012E40076EF09F077EF09F02380D8901D361E368B
:1012F4001F3620362706D8A0280625AE84EF09F02D
:1013040086EF09F06AEF09F0000E216E20AE8DEF32
:1013140009F08FEF09F0B3EF09F0FF0E1D14186EFA
:10132400FF0E1E14196EFF0E1F141A6E7F0E20146A
:101334001B6E185019101A101B10D8B4A4EF09F022
:10134400A6EF09F0AAEF09F0010E216EB3EF09F040
:1013540023A0AFEF09F0B1EF09F0B3EF09F0A6EF66
:1013640009F02150D8B4B9EF09F0BBEF09F0DFEF71
:1013740009F0010E2326000E24222522262226A06F
:10138400C6EF09F0C8EF09F0DFEF09F023C018F049
:1013940024C019F025C01AF026C01BF01B341B32E0
:1013A4001A321932183218C023F019C024F01AC0A6
:1013B40025F01BC026F0274A282A28BEEAEF09F0A8
:1013C400285008E12728D8A0EAEF09F0ECEF09F04B
:1013D400F6EF09F0000E236E000E246E800E256ECB
:1013E4007F0E266E24EF0AF028BE03EF0AF0285081
:1013F40006E12704D8B001EF0AF003EF0AF00FEF7B
:101404000AF0000E236E000E246E000E256E000EF0
:10141400266E000E1C6E24EF0AF027C022F0FF0E89
:101424002316FF0E24167F0E2516000E261622A064
:101434001EEF0AF020EF0AF021EF0AF0258ED89073
:101444002230266E1C50261223C010F024C011F046
:1014540025C012F026C013F012002C50800B396EF8
:101464002C502C24406E2BAE3AEF0AF03CEF0AF0DD
:101474003DEF0AF040804050D8B443EF0AF045EF06
:101484000AF05AEF0AF04028D8A44BEF0AF04DEFC7
:101494000AF055EF0AF0000E296E000E2A6E000EB7
:1014A4002B6E000E2C6E2B8E000E2C6E62EF0AF04B
:1014B400000E296E000E2A6E000E2B6E000E2C6E8E
:1014C4003050800B391A30503024416E2FAE6DEFFE
:1014D4000AF06FEF0AF070EF0AF041804150D8B47F
:1014E40076EF0AF078EF0AF08DEF0AF04128D8A4DD
:1014F4007EEF0AF080EF0AF088EF0AF0000E2D6EFE
:10150400000E2E6E000E2F6E000E306E2F8E000E0B
:10151400306E95EF0AF0000E2D6E000E2E6E000E4A
:101524002F6E000E306E2D502E102F103010D8A4B8
:101534009EEF0AF0A0EF0AF0B8EF0AF0000E296E51
:10154400000E2A6E000E2B6E000E2C6E800E2B12D7
:101554007F0E2C1239502C1229C029F02AC02AF0EF
:101564002BC02BF02CC02CF0FBEF0BF04050D8A478
:10157400BEEF0AF0C0EF0AF0CAEF0AF0000E296EBF
:10158400000E2A6E000E2B6E000E2C6EFBEF0BF07D
:10159400415040C031F0326A315E000E325A7F0E43
:1015A40031243A6E000E32203B6E29C035F02AC039
:1015B40036F02BC037F02CC038F0000E296E000E28
:1015C4002A6E000E2B6E000E2C6E000E3C6E000E6A
:1015D4003D6E000E3E6E000E3F6E000E416E2BEF10
:1015E4000BF04150D8B4F9EF0AF0FBEF0AF012EF18
:1015F4000BF0D8903536363637363836D89029360B
:101604002A362B362C363FAE0AEF0BF00CEF0BF0DC
:101614000DEF0BF02980D8903C363D363E363F36F0
:101624002D50355C2E5036582F503758305038587E
:10163400D8A01FEF0BF021EF0BF02AEF0BF03F8C3B
:101644002D50355E2E50365A2F50375A3050385A56
:10165400412A190E416431EF0BF033EF0BF0F3EF35
:101664000AF03550361037103810D8B43CEF0BF070
:101674003EEF0BF056EF0BF03C8056EF0BF0D8909A
:1016840029362A362B362C363FAE4BEF0BF04DEF76
:101694000BF04EEF0BF02980D8903C363D363E36A9
:1016A4003F363A06D8A03B062BAE5BEF0BF05DEF5E
:1016B4000BF041EF0BF0000E416E3FAE64EF0BF008
:1016C40066EF0BF08AEF0BF0FF0E3C14316EFF0E49
:1016D4003D14326EFF0E3E14336E7F0E3F14346E93
:1016E4003150321033103410D8B47BEF0BF07DEF4F
:1016F4000BF081EF0BF0010E416E8AEF0BF029A085
:1017040086EF0BF088EF0BF08AEF0BF07DEF0BF018
:101714004150D8B490EF0BF092EF0BF0B6EF0BF012
:10172400010E2926000E2A222B222C222CA09DEF0A
:101734000BF09FEF0BF0B6EF0BF029C031F02AC08D
:1017440032F02BC033F02CC034F034343432333222
:101754003232313231C029F032C02AF033C02BF09A
:1017640034C02CF03A4A3B2A3BBEC1EF0BF03B504D
:1017740008E13A28D8A0C1EF0BF0C3EF0BF0CEEF8D
:101784000BF0000E3B6E3A68000E296E000E2A6EB6
:10179400000E2B6E000E2C6E3BBEDBEF0BF03B50AD
:1017A40006E13A04D8B0D9EF0BF0DBEF0BF0E9EF28
:1017B4000BF0000E3B6E000E3A6E000E296E000E0A
:1017C4002A6E000E2B6E000E2C6E000E396E3AC07F
:1017D40040F040A0F0EF0BF0F2EF0BF0F5EF0BF060
:1017E4002B8EF6EF0BF02B9ED89040302C6EACEF86
:1017F4000AF012000600F2A802EF0CF004EF0CF05D
:101804000DEF0CF0F2A209EF0CF00BEF0CF00DEF62
:101814000CF08DEC16F0F0A612EF0CF014EF0CF0B7
:101824001DEF0CF0F0A019EF0CF01BEF0CF01DEF06
:101834000CF08BEC16F0F0A822EF0CF024EF0CF077
:101844002DEF0CF0F0A229EF0CF02BEF0CF02DEFA4
:101854000CF089EC16F0F2A632EF0CF034EF0CF039
:101864004FEF0CF0F2A039EF0CF03BEF0CF04FEF20
:101874000CF081A840EF0CF042EF0CF04FEF0CF0AD
:101884007404D8A448EF0CF04AEF0CF04FEF0CF0BE
:10189400000E746E010E6DEC16F0F2A654EF0CF00F
:1018A40056EF0CF071EF0CF0F2A05BEF0CF05DEF73
:1018B4000CF071EF0CF081B862EF0CF064EF0CF0F7
:1018C40071EF0CF07450D8A46AEF0CF06CEF0CF0CC
:1018D40071EF0CF0010E746E000E6DEC16F0F2A6B2
:1018E40076EF0CF078EF0CF093EF0CF0F2A07DEFB4
:1018F4000CF07FEF0CF093EF0CF081AA84EF0CF066
:1019040086EF0CF093EF0CF07304D8A48CEF0CF07A
:101914008EEF0CF093EF0CF0000E736E010E60EC82
:1019240016F0F2A698EF0CF09AEF0CF0B5EF0CF06D
:10193400F2A09FEF0CF0A1EF0CF0B5EF0CF081BA20
:10194400A6EF0CF0A8EF0CF0B5EF0CF07350D8A490
:10195400AEEF0CF0B0EF0CF0B5EF0CF0010E736EBF
:10196400000E60EC16F0F2A6BAEF0CF0BCEF0CF02F
:10197400D7EF0CF0F2A0C1EF0CF0C3EF0CF0D7EFEF
:101984000CF081ACC8EF0CF0CAEF0CF0D7EF0CF000
:101994007204D8A4D0EF0CF0D2EF0CF0D7EF0CF017
:1019A400000E726E010E53EC16F0F2A6DCEF0CF092
:1019B400DEEF0CF0F9EF0CF0F2A0E3EF0CF0E5EF42
:1019C4000CF0F9EF0CF081BCEAEF0CF0ECEF0CF04A
:1019D400F9EF0CF07250D8A4F2EF0CF0F4EF0CF025
:1019E400F9EF0CF0010E726E000E53EC16F0F2A635
:1019F400FEEF0CF000EF0DF01BEF0DF0F2A005EF81
:101A04000DF007EF0DF01BEF0DF081AE0CEF0DF0B4
:101A14000EEF0DF01BEF0DF07104D8A414EF0DF0D0
:101A240016EF0DF01BEF0DF0000E716E010E46EC7B
:101A340016F0F2A620EF0DF022EF0DF03DEF0DF0C1
:101A4400F2A027EF0DF029EF0DF03DEF0DF081BE70
:101A54002EEF0DF030EF0DF03DEF0DF07150D8A4E6
:101A640036EF0DF038EF0DF03DEF0DF0010E716E15
:101A7400000E46EC16F07C9211000D50D96EDA6A15
:101A8400DFCFF6FF100EF76EF86A0800F550250A4E
:101A9400D8A44FEF0DF051EF0DF00CEF0EF00D50F8
:101AA400D96EDA6ADF2A000E4D6E000E4C6E4CC001
:101AB40066F04E684F680D50D96EDA6ADF50116EC9
:101AC40011C0F6FF100EF76EF86A0800F550640AAC
:101AD400D8B46FEF0DF071EF0DF080EF0DF011C081
:101AE400F6FF100EF76EF86A0800F550690AD8A4DC
:101AF4007EEF0DF080EF0DF006EF0EF00E50D96E74
:101B0400DA6A020EDF26DF5CD96EDA6ADECF12F003
:101B1400DECF13F00D50D96EDA6A1128DF6E200E75
:101B2400166E13BE98EF0DF09BEF0DF0010E9CEFB7
:101B34000DF0000E106E16061650A80FD96EDA6A54
:101B440012C002F013C003F0000E056E0A0E046EFC
:101B540046EC12F002C008F003C009F0DCEC15F00A
:101B64000850300FDF6E12C002F013C003F0000EF5
:101B7400056E0A0E046E87EC11F002C012F003C069
:101B840013F012501310D8B4CAEF0DF0CCEF0DF0CF
:101B9400D4EF0DF01650D8A4D2EF0DF0D4EF0DF021
:101BA4009DEF0DF01650D8B4DAEF0DF0DCEF0DF028
:101BB400FBEF0DF01050D8B4E2EF0DF0E4EF0DF0B0
:101BC400FBEF0DF016061650A80FD96EDA6A2D0E2B
:101BD400DF6EFBEF0DF01650A80FD96EDA6ADF50F6
:101BE4000F6E0F50026E036A0CC004F09EEC12F0EC
:101BF400162A200E1618D8A402EF0EF004EF0EF0E9
:101C0400EDEF0DF01EEF0EF00D50D96EDA6ADF2AFB
:101C14001EEF0EF00D50D96EDA6ADFCFF6FF100E0C
:101C2400F76EF86A0800F550026E036A0CC004F0FF
:101C34009EEC12F006EF0EF012000A6E0A50D8B4B1
:101C440026EF0EF028EF0EF04AEF0EF005BE2FEF50
:101C54000EF02DEF0EF04AEF0EF002C006F003C0B6
:101C640007F004C008F005C009F0061E071E081E90
:101C7400091E062A000E07220822092206C00CF0BB
:101C840007C00DF008C00EF009C00FF052EF0EF0BF
:101C940002C00CF003C00DF004C00EF005C00FF03C
:101CA4000250031004100510D8A45BEF0EF05DEF92
:101CB4000EF067EF0EF0000E026E000E036E000EC3
:101CC400046E000E056EF8EF0EF0960E0B6E71EFBB
:101CD4000EF00B2AD8900F320E320D320C32000E59
:101CE4000C14066E000E0D14076E000E0E14086E12
:101CF400FE0E0F14096E0650071008100910D8A420
:101D040086EF0EF088EF0EF06BEF0EF096EF0EF00C
:101D14000B2A010E0C26000E0D220E220F22D89043
:101D24000F320E320D320C32000E0C14066E000E01
:101D34000D14076E000E0E14086EFF0E0F14096EBC
:101D44000650071008100910D8A4ABEF0EF0ADEF41
:101D54000EF08AEF0EF0B5EF0EF00B06D8900C36AD
:101D64000D360E360F360EBEBAEF0EF0BCEF0EF087
:101D7400C4EF0EF0020E0B60C2EF0EF0C4EF0EF0D3
:101D8400AFEF0EF00BB0C9EF0EF0CBEF0EF0CCEFCF
:101D94000EF00E9ED8900B320BC006F0076A086A4C
:101DA400096A06C009F0086A076A066A06500C1236
:101DB40007500D1208500E1209500F120A50D8B4D1
:101DC400E6EF0EF0E8EF0EF0F0EF0EF005BEEFEFE9
:101DD4000EF0EDEF0EF0F0EF0EF00F8E0CC002F0EF
:101DE4000DC003F00EC004F00FC005F01200010E88
:101DF400086E0250D8B401EF0FF003EF0FF013EFA9
:101E04000FF00250D96EDA6ADF30E832E832070B9D
:101E1400036E070E036411EF0FF013EF0FF06AEF78
:101E24000FF0000E086E8AEF0FF00250D96EDA6AD6
:101E3400DF30E832E832070B036E010E046E032A2A
:101E440026EF0FF0D8900436032E24EF0FF0045041
:101E5400FF0A056E0250D96EDA6ADF50070B020DD5
:101E6400F350940FD96EDA6ADECF06F0DDCF07F0B7
:101E740006C0D9FF07C0DAFF0550DF168AEF0FF05E
:101E84000250D96EDA6ADF30E832E832070B036EAB
:101E9400010E046E032A51EF0FF0D8900436032E7E
:101EA4004FEF0FF00250D96EDA6ADF50070B020DC4
:101EB400F350940FD96EDA6ADECF05F0DDCF06F069
:101EC40005C0D9FF06C0DAFF0450DF128AEF0FF015
:101ED4000250D96EDA6ADFBC72EF0FF075EF0FF0C3
:101EE400010E76EF0FF0000E036E046A0450000A30
:101EF400D8B47FEF0FF013EF0FF00350000AD8B4FB
:101F040017EF0FF0010AD8B442EF0FF013EF0FF000
:101F140008501200010E096E0250D8B494EF0FF06D
:101F240096EF0FF0A6EF0FF00250D96EDA6ADF30A9
:101F3400E832E832070B046E070E0464A4EF0FF0D6
:101F4400A6EF0FF0FDEF0FF0000E096E12EF10F088
:101F54000250D96EDA6ADF30E832E832070B046ED9
:101F6400010E056E042AB9EF0FF0D8900536042E41
:101F7400B7EF0FF00550FF0A066E0250D96EDA6A09
:101F8400DF50070B020DF3508A0FD96EDA6ADECFE9
:101F940007F0DDCF08F007C0D9FF08C0DAFF06500C
:101FA400DF1612EF10F00250D96EDA6ADF30E83231
:101FB400E832070B046E010E056E042AE4EF0FF0FD
:101FC400D8900536042EE2EF0FF00250D96EDA6A8B
:101FD400DF50070B020DF3508A0FD96EDA6ADECF99
:101FE40006F0DDCF07F006C0D9FF07C0DAFF0550C1
:101FF400DF1212EF10F00350046E056A0550000A58
:10200400D8B407EF10F0A6EF0FF00450000AD8B4CC
:10201400AAEF0FF0010AD8B4D5EF0FF0A6EF0FF036
:1020240009501200443445344B6E4B50D8A41DEF74
:1020340010F01FEF10F029EF10F0000E426E000EAA
:10204400436E000E446E000E456E96EF10F042C0D3
:1020540046F043C047F044C048F045C049F0200E64
:1020640039EF10F0D8904932483247324632E82EE0
:1020740034EF10F046504A6E448EFF0E4216FF0EA7
:102084004316FF0E4416000E4516960E4B5E4BBECD
:1020940050EF10F04EEF10F066EF10F04B50800A46
:1020A400970FD8B058EF10F05AEF10F05CEF10F023
:1020B4001FEF10F0D89045324432433242324B3E47
:1020C4005CEF10F07EEF10F01F0E4B646CEF10F01D
:1020D4006EEF10F076EF10F01FEF10F0D89042364C
:1020E4004336443645364B064B50D8A47CEF10F0AB
:1020F4007EEF10F070EF10F04A50D8B484EF10F077
:1021040086EF10F08EEF10F0451E441E431E426C05
:10211400000E43224422452242C042F043C043F011
:1021240044C044F045C045F012007AEC16F09E0E0F
:10213400196E200E1A6E1A50D8A4100E1B6E010EC2
:102144001C6E050E1D6E4BEC15F07B6E9E0E196E0B
:10215400110E1A6E1A50D8A4100E1B6E020E1C6EAD
:10216400010E1D6E4BEC15F07B6E750E0B6E000EA2
:102174000C6E6F0E0D6E76EC14F07B6E000E2D6EF1
:10218400000E2E6E200E2F6E410E306EF60E146E63
:10219400280E156E9C0E166E400E176E6FC002F060
:1021A40070C003F0046A056A000E1FEC0EF002C052
:1021B40010F003C011F004C012F005C013F01AECC3
:1021C40008F010C029F011C02AF012C02BF013C07F
:1021D4002CF02FEC0AF029C042F02AC043F02BC0A7
:1021E40044F02CC045F014EC10F042C079F043C028
:1021F4007AF079C02CF07AC02DF0C80E2E6EE8EC7F
:1022040014F07B6E9E0E196EC80E1A6E1B6A020EB7
:102214001C6E0F0E1D6E4BEC15F07B6EB7EF10F0BD
:1022240007EF00F0000E166E1450D8A41CEF11F046
:102234001EEF11F022EF11F0000E176E85EF11F072
:1022440014C00AF047EC14F0176E14280A6E47EC19
:1022540014F0176E000E166E14501624020F0A6E38
:1022640047EC14F0162A070E16643BEF11F03DEF0D
:1022740011F02EEF11F0340E156EF20EE82EFED78B
:10228400152EFCD714C010F0380E116EC5EC14F0E6
:102294000D0E156EFC0EE82EFED7152EFCD714C0BD
:1022A40010F0380E116EC5EC14F0640EE82EFED753
:1022B40014C010F0380E116EC5EC14F014C010F0F8
:1022C400010E116EC5EC14F014C010F0020E116E64
:1022D400C5EC14F014C010F0060E116EC5EC14F029
:1022E40014C010F00C0E116EC5EC14F014C010F0F4
:1022F400380E116EC5EC14F014C010F0800E116E7F
:10230400C5EC14F0176E17501200000E076E05BED0
:1023140090EF11F08EEF11F096EF11F0046C051EA2
:10232400D8B0052A010E076E03BE9DEF11F09BEF96
:1023340011F0A3EF11F0026C031ED8B0032A010EB2
:10234400071A000E096E000E086E04500510D8B46A
:10235400AEEF11F0B0EF11F0D8EF11F0010E066EF0
:10236400B8EF11F0D89004360536062A05AEBDEF55
:1023740011F0BFEF11F0B4EF11F0D8900836093620
:102384000450025C05500358D8A0CBEF11F0CDEFF8
:1023940011F0D2EF11F00450025E0550035A088088
:1023A400D89005320432062EBFEF11F00750D8B48E
:1023B400DEEF11F0E0EF11F0E4EF11F0086C091E0C
:1023C400D8B0092A08C002F009C003F01200046E54
:1023D40004EF12F0928045EF12F0928245EF12F072
:1023E400928445EF12F0928645EF12F0928A45EFFF
:1023F40012F0968045EF12F0938445EF12F0928824
:1024040045EF12F00450026E036A0350000AD8B478
:102414000EEF12F045EF12F00250000AD8B4ECEFC0
:1024240011F0010AD8B4EFEF11F0030AD8B4F2EFB7
:1024340011F0010AD8B4F5EF11F0070AD8B4F8EF97
:1024440011F0010AD8B4FBEF11F0030AD8B4EFEF8E
:1024540011F0010AD8B4F2EF11F00F0AD8B4FEEF6C
:1024640011F0010AD8B4F5EF11F0030AD8B4EFEF74
:1024740011F0010AD8B401EF12F0070AD8B4ECEF56
:1024840011F045EF12F01200000E076E03BE4FEF7D
:1024940012F04DEF12F055EF12F0026C031ED8B09B
:1024A400032A010E076E05BE5CEF12F05AEF12F01C
:1024B40060EF12F0046C051ED8B0052A0450051014
:1024C400D8B467EF12F069EF12F08DEF12F0010E3D
:1024D400066E71EF12F0D89004360536062A05AE62
:1024E40076EF12F078EF12F06DEF12F00450025C08
:1024F40005500358D8A081EF12F083EF12F087EF54
:1025040012F00450025E0550035AD890053204328A
:10251400062E78EF12F00750D8B493EF12F095EF2F
:1025240012F099EF12F0026C031ED8B0032A02C015
:1025340002F003C003F012000450D8B4A4EF12F068
:10254400A6EF12F0AEEF12F00450D8A4ACEF12F0E4
:10255400AEEF12F0B3EF12F002508FEC16F0F2EF80
:1025640012F00450D96EDA6A0A0ED926DE50DE1053
:10257400D8B4BFEF12F0C1EF12F0DAEF12F004504A
:10258400D96EDA6A0A0ED9260450E16EE26A030EA5
:10259400E126DE50E65CE650800A096EDE50800AD1
:1025A4000958D8B0D8EF12F0DAEF12F0F2EF12F0C7
:1025B4000450D96EDA6A030ED926DF50056E045032
:1025C400D96EDA6ADF500524D96EDA6A02C0DFFFF9
:1025D4000450D96EDA6A030ED926DE2A000EDD22F3
:1025E40012001450D8A4F9EF12F0FBEF12F0FDEF33
:1025F40012F041EF13F0160624EF13F014C010F09C
:102604001650800F116EC5EC14F041EF13F014C096
:1026140010F01650C00F116EC5EC14F041EF13F01A
:1026240014C010F01650940F116EC5EC14F041EF65
:1026340013F014C010F01650D40F116EC5EC14F042
:1026440041EF13F01550176E186A1850000AD8B4E9
:102654002EEF13F041EF13F01750010AD8B400EF36
:1026640013F0030AD8B409EF13F0010AD8B412EF37
:1026740013F0070AD8B41BEF13F041EF13F0000E68
:1026840012000550D8A449EF13F04BEF13F04FEFAD
:1026940013F0000E076E8AEF13F0C2900550D96E46
:1026A400DA6ADF50066EC0500618F80B0618C06EC2
:1026B4000550D96EDA6A010ED926DF50066E064639
:1026C40006460646C0500618C70B0618C06E0550CD
:1026D400D96EDA6A020ED926DF50066E0646064621
:1026E400C2500618C30B0618C26E0550D96EDA6ABA
:1026F400020ED926DF50E9EC11F005C002F06AECB5
:1027040015F005C002F089EC15F0C280010E076EC9
:10271400075012000250D8A492EF13F094EF13F074
:1027240098EF13F0000E0A6ED2EF13F00250D96E38
:10273400DA6A030ED926DFB0A2EF13F0A4EF13F088
:10274400BFEF13F0C3CF04F0060E056ED890043229
:10275400052EA8EF13F00450076E066AC450062431
:10276400086E000E0720096E0350D96EDA6A08C09D
:10277400DEFF09C0DDFFD0EF13F0C350C4CF04F077
:10278400056A04C005F0046A0426000E05220350FD
:10279400D96EDA6A04C0DEFF05C0DDFF010E0A6EE1
:1027A4000A501200000E166E1350D8A4DCEF13F07A
:1027B400DEEF13F0FBEF13F0000E166E14EF14F0BF
:1027C40013C010F014C0F6FF15C0F7FF000EF86E2A
:1027D4000F0EF76403D00800F55005D0F6CFE9FFDB
:1027E400F7CFEAFFEF50116E0AEC15F0166E144A9B
:1027F400152A14C0F6FF15C0F7FF000EF86E0F0E71
:10280400F76403D00800F55005D0F6CFE9FFF7CF01
:10281400EAFFEF500009D8A412EF14F014EF14F0FB
:10282400E2EF13F0165012001C0EF66E2C0EF76E2B
:10283400000EF86E00EE80F010EE28F00900F5CFDF
:10284400EEFFE550E150FAE10A0EF66E2D0EF76E3A
:10285400000EF86E00EE71F010EE08F00900F5CFEE
:10286400EEFFE550E150FAE100EEA8F0270EEE6A23
:10287400E806FDE100EE4CF0250EEE6AE806FDE107
:102884007C907C92000197EF10F00A50D8B44DEF81
:1028940014F04FEF14F05FEF14F00A50D96EDA6AB7
:1028A400DF30E832E832070B0B6E070E0B645DEF86
:1028B40014F05FEF14F063EF14F0000E0C6E74EF7D
:1028C40014F00AC002F0F9EC0EF00C6E0AC002F02B
:1028D4000A50D96EDA6A000EDFBE010E036E8CEC6C
:1028E4000FF00C6E0C5012000B50D8A47CEF14F0B7
:1028F4007EEF14F082EF14F0000E0E6E9EEF14F0D3
:102904000BC005F00CC006F0A6EC15F00E6E0BC063
:1029140002F035EC16F00E16C2B293EF14F095EFF8
:1029240014F08EEF14F00BC002F00DC003F08CEC29
:1029340013F00E16010E0E6E0E501200000E0F6EE6
:10294400000E0F6E0A500F24020F026E0FC00CF01F
:102954000BC00DF00C2AB1EF14F0D8900D320C2EF0
:10296400AFEF14F00D50010B036E8CEC0FF00E6EF4
:102974000F2A070E0F64C1EF14F0C3EF14F0A4EF95
:1029840014F00E501200000E126E1050D8A4CDEFA9
:1029940014F0CFEF14F0D3EF14F0000E136EE6EF43
:1029A40014F010C002F0000E036E8CEC0FF0136EE6
:1029B40010C00AF011C00BF0A0EC14F0136E10C09C
:1029C4000AF022EC16F0136E135012002E50D8A405
:1029D400EEEF14F0F0EF14F0F2EF14F008EF15F04E
:1029E4002EC002F0000E046E000E036E000E066E82
:1029F400060E056EF6EC15F02EC01BF02F0E1C6EA5
:102A04002CC01DF02DC01EF0C2EC15F0000E1200FB
:102A14001050D8A410EF15F012EF15F016EF15F0C2
:102A2400000E126E29EF15F010C002F0010E036EB5
:102A34008CEC0FF0126E10C00AF011C00BF0A0EC79
:102A440014F0126E10C00AF022EC16F0126E12503E
:102A5400120018C01AF037EF15F017C00CF01A0E58
:102A64000D6E19C00EF03FEC0DF01AC0F6FF100EFB
:102A7400F76EF86A0800F5500009D8A444EF15F081
:102A840046EF15F02FEF15F0000E186E000E176EBE
:102A940012001950D8A451EF15F053EF15F057EF69
:102AA40015F0000E1E6E68EF15F019C014F01CC06E
:102AB40015F01DC016F0F3EC12F019C013F01AC093
:102AC40014F01BC015F0D4EC13F01E6E1E5012004F
:102AD4000250D96EDA6A030ED926DFA274EF15F01C
:102AE40076EF15F07AEF15F0C18AC18888EF15F0FA
:102AF4000250D96EDA6A030ED926DFB284EF15F0DC
:102B040086EF15F088EF15F0C19AC19812000250B3
:102B1400D96EDA6A030ED926DFB093EF15F095EF7C
:102B240015F098EF15F0C09EA5EF15F00250D96E80
:102B3400DA6A030ED926DFA0A2EF15F0A4EF15F090
:102B4400A5EF15F0C08E12000550D8A4ACEF15F017
:102B5400AEEF15F0B2EF15F0000E086EC0EF15F0F1
:102B640006C007F007460746C2500718C30B0718EC
:102B7400C26E0650E9EC11F0010E086E0850120006
:102B84001D0E1F6E1BC020F0000E246E000E236E5F
:102B9400000E2B6E000E2A6E200E176E1CC018F04D
:102BA4001F0E196E2BEC15F01B502324D96EDA6A14
:102BB400DF6A120009BEE1EF15F0E3EF15F0E9EF6B
:102BC40015F008C008F009C009F0F5EF15F008C0C9
:102BD4000AF009C00BF00A1E0B1E0A4A0B2A0AC08F
:102BE40008F00BC009F0120002C007F000EF16F065
:102BF4000750D96EDA6A03C0DFFF072A0506D8A09A
:102C04000606052806E10628D8A40BEF16F00DEFFA
:102C140016F0FAEF15F01200800F810F820F830F68
:102C2400840F890F8A0F8B0F8C0F8D0F920F930FC8
:102C3400940F950F960F020A121A222A323A030BA6
:102C44000A28026E010E036E8CEC0FF0030EE82EC0
:102C5400FED700000A28026E000E036E8CEC0FF003
:102C64000B6E0B5012000250D8A43BEF16F03DEF50
:102C740016F041EF16F0000E036E44EF16F0C28218
:102C8400010E036E03501200016EF2900150D8A49D
:102C94004EEF16F050EF16F052EF16F052EF16F01A
:102CA4001200016EF2900150D8A45BEF16F05DEFB4
:102CB40016F05FEF16F05FEF16F01200016EF2905F
:102CC4000150D8A468EF16F06AEF16F06CEF16F016
:102CD4006CEF16F01200016EF2900150D8A475EF5B
:102CE40016F077EF16F079EF16F079EF16F0120080
:102CF400750E056E43EC13F07B6E9E0E146E14EC91
:102D040011F07B6E12000101010105050001F09232
:0C2D14001200F0901200F2921200120067
:020000040020DA
:08000000FFFFFFFFFFFFFFFF00
:020000040030CA
:0E000000FF02091EFF8181FF0FC00FE00F40BD
:00000001FF
